{
	"data": {
		"bytecode": {
			"linkReferences": {},
			"object": "608060405234801561001057600080fd5b50611026806100206000396000f3fe608060405234801561001057600080fd5b50600436106100415760003560e01c80633cf16fda146100465780636f5c148e14610062578063b16c6ee71461007e575b600080fd5b610060600480360381019061005b9190610823565b6100b1565b005b61007c60048036038101906100779190610928565b610262565b005b61009860048036038101906100939190610984565b610466565b6040516100a89493929190610a74565b60405180910390f35b6000836040516100c19190610b03565b908152602001604051809103902060040160009054906101000a900460ff1615610120576040517f08c379a000000000000000000000000000000000000000000000000000000000815260040161011790610b66565b60405180910390fd5b6040518060a001604052808381526020018281526020013373ffffffffffffffffffffffffffffffffffffffff168152602001428152602001600115158152506000846040516101709190610b03565b908152602001604051809103902060008201518160000190816101939190610d92565b5060208201518160010190816101a99190610d92565b5060408201518160020160006101000a81548173ffffffffffffffffffffffffffffffffffffffff021916908373ffffffffffffffffffffffffffffffffffffffff1602179055506060820151816003015560808201518160040160006101000a81548160ff0219169083151502179055509050507fa3ad5da5ab6971df26629dabd565b63ef7356777c910d1dff239cc865776a5688383833342604051610255959493929190610e64565b60405180910390a1505050565b6000826040516102729190610b03565b908152602001604051809103902060040160009054906101000a900460ff166102d0576040517f08c379a00000000000000000000000000000000000000000000000000000000081526004016102c790610f18565b60405180910390fd5b6000826040516102e09190610b03565b908152602001604051809103902060020160009054906101000a900473ffffffffffffffffffffffffffffffffffffffff1673ffffffffffffffffffffffffffffffffffffffff163373ffffffffffffffffffffffffffffffffffffffff161461037f576040517f08c379a000000000000000000000000000000000000000000000000000000000815260040161037690610f84565b60405180910390fd5b600080836040516103909190610b03565b908152602001604051809103902060020160009054906101000a900473ffffffffffffffffffffffffffffffffffffffff169050816000846040516103d59190610b03565b908152602001604051809103902060020160006101000a81548173ffffffffffffffffffffffffffffffffffffffff021916908373ffffffffffffffffffffffffffffffffffffffff1602179055507f27005334bd99a9970f3aec62a19080dd92204320057b6c14a2c538a6315992b2838284426040516104599493929190610fa4565b60405180910390a1505050565b60608060008060008560405161047c9190610b03565b908152602001604051809103902060040160009054906101000a900460ff166104da576040517f08c379a00000000000000000000000000000000000000000000000000000000081526004016104d190610f18565b60405180910390fd5b600080866040516104eb9190610b03565b90815260200160405180910390206040518060a001604052908160008201805461051490610bb5565b80601f016020809104026020016040519081016040528092919081815260200182805461054090610bb5565b801561058d5780601f106105625761010080835404028352916020019161058d565b820191906000526020600020905b81548152906001019060200180831161057057829003601f168201915b505050505081526020016001820180546105a690610bb5565b80601f01602080910402602001604051908101604052809291908181526020018280546105d290610bb5565b801561061f5780601f106105f45761010080835404028352916020019161061f565b820191906000526020600020905b81548152906001019060200180831161060257829003601f168201915b505050505081526020016002820160009054906101000a900473ffffffffffffffffffffffffffffffffffffffff1673ffffffffffffffffffffffffffffffffffffffff1673ffffffffffffffffffffffffffffffffffffffff168152602001600382015481526020016004820160009054906101000a900460ff161515151581525050905080600001518160200151826040015183606001519450945094509450509193509193565b6000604051905090565b600080fd5b600080fd5b600080fd5b600080fd5b6000601f19601f8301169050919050565b7f4e487b7100000000000000000000000000000000000000000000000000000000600052604160045260246000fd5b610730826106e7565b810181811067ffffffffffffffff8211171561074f5761074e6106f8565b5b80604052505050565b60006107626106c9565b905061076e8282610727565b919050565b600067ffffffffffffffff82111561078e5761078d6106f8565b5b610797826106e7565b9050602081019050919050565b82818337600083830152505050565b60006107c66107c184610773565b610758565b9050828152602081018484840111156107e2576107e16106e2565b5b6107ed8482856107a4565b509392505050565b600082601f83011261080a576108096106dd565b5b813561081a8482602086016107b3565b91505092915050565b60008060006060848603121561083c5761083b6106d3565b5b600084013567ffffffffffffffff81111561085a576108596106d8565b5b610866868287016107f5565b935050602084013567ffffffffffffffff811115610887576108866106d8565b5b610893868287016107f5565b925050604084013567ffffffffffffffff8111156108b4576108b36106d8565b5b6108c0868287016107f5565b9150509250925092565b600073ffffffffffffffffffffffffffffffffffffffff82169050919050565b60006108f5826108ca565b9050919050565b610905816108ea565b811461091057600080fd5b50565b600081359050610922816108fc565b92915050565b6000806040838503121561093f5761093e6106d3565b5b600083013567ffffffffffffffff81111561095d5761095c6106d8565b5b610969858286016107f5565b925050602061097a85828601610913565b9150509250929050565b60006020828403121561099a576109996106d3565b5b600082013567ffffffffffffffff8111156109b8576109b76106d8565b5b6109c4848285016107f5565b91505092915050565b600081519050919050565b600082825260208201905092915050565b60005b83811015610a075780820151818401526020810190506109ec565b60008484015250505050565b6000610a1e826109cd565b610a2881856109d8565b9350610a388185602086016109e9565b610a41816106e7565b840191505092915050565b610a55816108ea565b82525050565b6000819050919050565b610a6e81610a5b565b82525050565b60006080820190508181036000830152610a8e8187610a13565b90508181036020830152610aa28186610a13565b9050610ab16040830185610a4c565b610abe6060830184610a65565b95945050505050565b600081905092915050565b6000610add826109cd565b610ae78185610ac7565b9350610af78185602086016109e9565b80840191505092915050565b6000610b0f8284610ad2565b915081905092915050565b7f45766964656e636520616c726561647920657869737473000000000000000000600082015250565b6000610b506017836109d8565b9150610b5b82610b1a565b602082019050919050565b60006020820190508181036000830152610b7f81610b43565b9050919050565b7f4e487b7100000000000000000000000000000000000000000000000000000000600052602260045260246000fd5b60006002820490506001821680610bcd57607f821691505b602082108103610be057610bdf610b86565b5b50919050565b60008190508160005260206000209050919050565b60006020601f8301049050919050565b600082821b905092915050565b600060088302610c487fffffffffffffffffffffffffffffffffffffffffffffffffffffffffffffffff82610c0b565b610c528683610c0b565b95508019841693508086168417925050509392505050565b6000819050919050565b6000610c8f610c8a610c8584610a5b565b610c6a565b610a5b565b9050919050565b6000819050919050565b610ca983610c74565b610cbd610cb582610c96565b848454610c18565b825550505050565b600090565b610cd2610cc5565b610cdd818484610ca0565b505050565b5b81811015610d0157610cf6600082610cca565b600181019050610ce3565b5050565b601f821115610d4657610d1781610be6565b610d2084610bfb565b81016020851015610d2f578190505b610d43610d3b85610bfb565b830182610ce2565b50505b505050565b600082821c905092915050565b6000610d6960001984600802610d4b565b1980831691505092915050565b6000610d828383610d58565b9150826002028217905092915050565b610d9b826109cd565b67ffffffffffffffff811115610db457610db36106f8565b5b610dbe8254610bb5565b610dc9828285610d05565b600060209050601f831160018114610dfc5760008415610dea578287015190505b610df48582610d76565b865550610e5c565b601f198416610e0a86610be6565b60005b82811015610e3257848901518255600182019150602085019450602081019050610e0d565b86831015610e4f5784890151610e4b601f891682610d58565b8355505b6001600288020188555050505b505050505050565b600060a0820190508181036000830152610e7e8188610a13565b90508181036020830152610e928187610a13565b90508181036040830152610ea68186610a13565b9050610eb56060830185610a4c565b610ec26080830184610a65565b9695505050505050565b7f45766964656e6365206e6f7420666f756e640000000000000000000000000000600082015250565b6000610f026012836109d8565b9150610f0d82610ecc565b602082019050919050565b60006020820190508181036000830152610f3181610ef5565b9050919050565b7f4e6f742063757272656e74206f776e6572000000000000000000000000000000600082015250565b6000610f6e6011836109d8565b9150610f7982610f38565b602082019050919050565b60006020820190508181036000830152610f9d81610f61565b9050919050565b60006080820190508181036000830152610fbe8187610a13565b9050610fcd6020830186610a4c565b610fda6040830185610a4c565b610fe76060830184610a65565b9594505050505056fea2646970667358221220dbb62e92f646f78bd73cfbcaa2e9ee9ec4ab5ea9fdea01e0c1963e5346551fac64736f6c63430008130033",
			"opcodes": "PUSH1 0x80 PUSH1 0x40 MSTORE CALLVALUE DUP1 ISZERO PUSH2 0x10 JUMPI PUSH1 0x0 DUP1 REVERT JUMPDEST POP PUSH2 0x1026 DUP1 PUSH2 0x20 PUSH1 0x0 CODECOPY PUSH1 0x0 RETURN INVALID PUSH1 0x80 PUSH1 0x40 MSTORE CALLVALUE DUP1 ISZERO PUSH2 0x10 JUMPI PUSH1 0x0 DUP1 REVERT JUMPDEST POP PUSH1 0x4 CALLDATASIZE LT PUSH2 0x41 JUMPI PUSH1 0x0 CALLDATALOAD PUSH1 0xE0 SHR DUP1 PUSH4 0x3CF16FDA EQ PUSH2 0x46 JUMPI DUP1 PUSH4 0x6F5C148E EQ PUSH2 0x62 JUMPI DUP1 PUSH4 0xB16C6EE7 EQ PUSH2 0x7E JUMPI JUMPDEST PUSH1 0x0 DUP1 REVERT JUMPDEST PUSH2 0x60 PUSH1 0x4 DUP1 CALLDATASIZE SUB DUP2 ADD SWAP1 PUSH2 0x5B SWAP2 SWAP1 PUSH2 0x823 JUMP JUMPDEST PUSH2 0xB1 JUMP JUMPDEST STOP JUMPDEST PUSH2 0x7C PUSH1 0x4 DUP1 CALLDATASIZE SUB DUP2 ADD SWAP1 PUSH2 0x77 SWAP2 SWAP1 PUSH2 0x928 JUMP JUMPDEST PUSH2 0x262 JUMP JUMPDEST STOP JUMPDEST PUSH2 0x98 PUSH1 0x4 DUP1 CALLDATASIZE SUB DUP2 ADD SWAP1 PUSH2 0x93 SWAP2 SWAP1 PUSH2 0x984 JUMP JUMPDEST PUSH2 0x466 JUMP JUMPDEST PUSH1 0x40 MLOAD PUSH2 0xA8 SWAP5 SWAP4 SWAP3 SWAP2 SWAP1 PUSH2 0xA74 JUMP JUMPDEST PUSH1 0x40 MLOAD DUP1 SWAP2 SUB SWAP1 RETURN JUMPDEST PUSH1 0x0 DUP4 PUSH1 0x40 MLOAD PUSH2 0xC1 SWAP2 SWAP1 PUSH2 0xB03 JUMP JUMPDEST SWAP1 DUP2 MSTORE PUSH1 0x20 ADD PUSH1 0x40 MLOAD DUP1 SWAP2 SUB SWAP1 KECCAK256 PUSH1 0x4 ADD PUSH1 0x0 SWAP1 SLOAD SWAP1 PUSH2 0x100 EXP SWAP1 DIV PUSH1 0xFF AND ISZERO PUSH2 0x120 JUMPI PUSH1 0x40 MLOAD PUSH32 0x8C379A000000000000000000000000000000000000000000000000000000000 DUP2 MSTORE PUSH1 0x4 ADD PUSH2 0x117 SWAP1 PUSH2 0xB66 JUMP JUMPDEST PUSH1 0x40 MLOAD DUP1 SWAP2 SUB SWAP1 REVERT JUMPDEST PUSH1 0x40 MLOAD DUP1 PUSH1 0xA0 ADD PUSH1 0x40 MSTORE DUP1 DUP4 DUP2 MSTORE PUSH1 0x20 ADD DUP3 DUP2 MSTORE PUSH1 0x20 ADD CALLER PUSH20 0xFFFFFFFFFFFFFFFFFFFFFFFFFFFFFFFFFFFFFFFF AND DUP2 MSTORE PUSH1 0x20 ADD TIMESTAMP DUP2 MSTORE PUSH1 0x20 ADD PUSH1 0x1 ISZERO ISZERO DUP2 MSTORE POP PUSH1 0x0 DUP5 PUSH1 0x40 MLOAD PUSH2 0x170 SWAP2 SWAP1 PUSH2 0xB03 JUMP JUMPDEST SWAP1 DUP2 MSTORE PUSH1 0x20 ADD PUSH1 0x40 MLOAD DUP1 SWAP2 SUB SWAP1 KECCAK256 PUSH1 0x0 DUP3 ADD MLOAD DUP2 PUSH1 0x0 ADD SWAP1 DUP2 PUSH2 0x193 SWAP2 SWAP1 PUSH2 0xD92 JUMP JUMPDEST POP PUSH1 0x20 DUP3 ADD MLOAD DUP2 PUSH1 0x1 ADD SWAP1 DUP2 PUSH2 0x1A9 SWAP2 SWAP1 PUSH2 0xD92 JUMP JUMPDEST POP PUSH1 0x40 DUP3 ADD MLOAD DUP2 PUSH1 0x2 ADD PUSH1 0x0 PUSH2 0x100 EXP DUP2 SLOAD DUP2 PUSH20 0xFFFFFFFFFFFFFFFFFFFFFFFFFFFFFFFFFFFFFFFF MUL NOT AND SWAP1 DUP4 PUSH20 0xFFFFFFFFFFFFFFFFFFFFFFFFFFFFFFFFFFFFFFFF AND MUL OR SWAP1 SSTORE POP PUSH1 0x60 DUP3 ADD MLOAD DUP2 PUSH1 0x3 ADD SSTORE PUSH1 0x80 DUP3 ADD MLOAD DUP2 PUSH1 0x4 ADD PUSH1 0x0 PUSH2 0x100 EXP DUP2 SLOAD DUP2 PUSH1 0xFF MUL NOT AND SWAP1 DUP4 ISZERO ISZERO MUL OR SWAP1 SSTORE POP SWAP1 POP POP PUSH32 0xA3AD5DA5AB6971DF26629DABD565B63EF7356777C910D1DFF239CC865776A568 DUP4 DUP4 DUP4 CALLER TIMESTAMP PUSH1 0x40 MLOAD PUSH2 0x255 SWAP6 SWAP5 SWAP4 SWAP3 SWAP2 SWAP1 PUSH2 0xE64 JUMP JUMPDEST PUSH1 0x40 MLOAD DUP1 SWAP2 SUB SWAP1 LOG1 POP POP POP JUMP JUMPDEST PUSH1 0x0 DUP3 PUSH1 0x40 MLOAD PUSH2 0x272 SWAP2 SWAP1 PUSH2 0xB03 JUMP JUMPDEST SWAP1 DUP2 MSTORE PUSH1 0x20 ADD PUSH1 0x40 MLOAD DUP1 SWAP2 SUB SWAP1 KECCAK256 PUSH1 0x4 ADD PUSH1 0x0 SWAP1 SLOAD SWAP1 PUSH2 0x100 EXP SWAP1 DIV PUSH1 0xFF AND PUSH2 0x2D0 JUMPI PUSH1 0x40 MLOAD PUSH32 0x8C379A000000000000000000000000000000000000000000000000000000000 DUP2 MSTORE PUSH1 0x4 ADD PUSH2 0x2C7 SWAP1 PUSH2 0xF18 JUMP JUMPDEST PUSH1 0x40 MLOAD DUP1 SWAP2 SUB SWAP1 REVERT JUMPDEST PUSH1 0x0 DUP3 PUSH1 0x40 MLOAD PUSH2 0x2E0 SWAP2 SWAP1 PUSH2 0xB03 JUMP JUMPDEST SWAP1 DUP2 MSTORE PUSH1 0x20 ADD PUSH1 0x40 MLOAD DUP1 SWAP2 SUB SWAP1 KECCAK256 PUSH1 0x2 ADD PUSH1 0x0 SWAP1 SLOAD SWAP1 PUSH2 0x100 EXP SWAP1 DIV PUSH20 0xFFFFFFFFFFFFFFFFFFFFFFFFFFFFFFFFFFFFFFFF AND PUSH20 0xFFFFFFFFFFFFFFFFFFFFFFFFFFFFFFFFFFFFFFFF AND CALLER PUSH20 0xFFFFFFFFFFFFFFFFFFFFFFFFFFFFFFFFFFFFFFFF AND EQ PUSH2 0x37F JUMPI PUSH1 0x40 MLOAD PUSH32 0x8C379A000000000000000000000000000000000000000000000000000000000 DUP2 MSTORE PUSH1 0x4 ADD PUSH2 0x376 SWAP1 PUSH2 0xF84 JUMP JUMPDEST PUSH1 0x40 MLOAD DUP1 SWAP2 SUB SWAP1 REVERT JUMPDEST PUSH1 0x0 DUP1 DUP4 PUSH1 0x40 MLOAD PUSH2 0x390 SWAP2 SWAP1 PUSH2 0xB03 JUMP JUMPDEST SWAP1 DUP2 MSTORE PUSH1 0x20 ADD PUSH1 0x40 MLOAD DUP1 SWAP2 SUB SWAP1 KECCAK256 PUSH1 0x2 ADD PUSH1 0x0 SWAP1 SLOAD SWAP1 PUSH2 0x100 EXP SWAP1 DIV PUSH20 0xFFFFFFFFFFFFFFFFFFFFFFFFFFFFFFFFFFFFFFFF AND SWAP1 POP DUP2 PUSH1 0x0 DUP5 PUSH1 0x40 MLOAD PUSH2 0x3D5 SWAP2 SWAP1 PUSH2 0xB03 JUMP JUMPDEST SWAP1 DUP2 MSTORE PUSH1 0x20 ADD PUSH1 0x40 MLOAD DUP1 SWAP2 SUB SWAP1 KECCAK256 PUSH1 0x2 ADD PUSH1 0x0 PUSH2 0x100 EXP DUP2 SLOAD DUP2 PUSH20 0xFFFFFFFFFFFFFFFFFFFFFFFFFFFFFFFFFFFFFFFF MUL NOT AND SWAP1 DUP4 PUSH20 0xFFFFFFFFFFFFFFFFFFFFFFFFFFFFFFFFFFFFFFFF AND MUL OR SWAP1 SSTORE POP PUSH32 0x27005334BD99A9970F3AEC62A19080DD92204320057B6C14A2C538A6315992B2 DUP4 DUP3 DUP5 TIMESTAMP PUSH1 0x40 MLOAD PUSH2 0x459 SWAP5 SWAP4 SWAP3 SWAP2 SWAP1 PUSH2 0xFA4 JUMP JUMPDEST PUSH1 0x40 MLOAD DUP1 SWAP2 SUB SWAP1 LOG1 POP POP POP JUMP JUMPDEST PUSH1 0x60 DUP1 PUSH1 0x0 DUP1 PUSH1 0x0 DUP6 PUSH1 0x40 MLOAD PUSH2 0x47C SWAP2 SWAP1 PUSH2 0xB03 JUMP JUMPDEST SWAP1 DUP2 MSTORE PUSH1 0x20 ADD PUSH1 0x40 MLOAD DUP1 SWAP2 SUB SWAP1 KECCAK256 PUSH1 0x4 ADD PUSH1 0x0 SWAP1 SLOAD SWAP1 PUSH2 0x100 EXP SWAP1 DIV PUSH1 0xFF AND PUSH2 0x4DA JUMPI PUSH1 0x40 MLOAD PUSH32 0x8C379A000000000000000000000000000000000000000000000000000000000 DUP2 MSTORE PUSH1 0x4 ADD PUSH2 0x4D1 SWAP1 PUSH2 0xF18 JUMP JUMPDEST PUSH1 0x40 MLOAD DUP1 SWAP2 SUB SWAP1 REVERT JUMPDEST PUSH1 0x0 DUP1 DUP7 PUSH1 0x40 MLOAD PUSH2 0x4EB SWAP2 SWAP1 PUSH2 0xB03 JUMP JUMPDEST SWAP1 DUP2 MSTORE PUSH1 0x20 ADD PUSH1 0x40 MLOAD DUP1 SWAP2 SUB SWAP1 KECCAK256 PUSH1 0x40 MLOAD DUP1 PUSH1 0xA0 ADD PUSH1 0x40 MSTORE SWAP1 DUP2 PUSH1 0x0 DUP3 ADD DUP1 SLOAD PUSH2 0x514 SWAP1 PUSH2 0xBB5 JUMP JUMPDEST DUP1 PUSH1 0x1F ADD PUSH1 0x20 DUP1 SWAP2 DIV MUL PUSH1 0x20 ADD PUSH1 0x40 MLOAD SWAP1 DUP2 ADD PUSH1 0x40 MSTORE DUP1 SWAP3 SWAP2 SWAP1 DUP2 DUP2 MSTORE PUSH1 0x20 ADD DUP3 DUP1 SLOAD PUSH2 0x540 SWAP1 PUSH2 0xBB5 JUMP JUMPDEST DUP1 ISZERO PUSH2 0x58D JUMPI DUP1 PUSH1 0x1F LT PUSH2 0x562 JUMPI PUSH2 0x100 DUP1 DUP4 SLOAD DIV MUL DUP4 MSTORE SWAP2 PUSH1 0x20 ADD SWAP2 PUSH2 0x58D JUMP JUMPDEST DUP3 ADD SWAP2 SWAP1 PUSH1 0x0 MSTORE PUSH1 0x20 PUSH1 0x0 KECCAK256 SWAP1 JUMPDEST DUP2 SLOAD DUP2 MSTORE SWAP1 PUSH1 0x1 ADD SWAP1 PUSH1 0x20 ADD DUP1 DUP4 GT PUSH2 0x570 JUMPI DUP3 SWAP1 SUB PUSH1 0x1F AND DUP3 ADD SWAP2 JUMPDEST POP POP POP POP POP DUP2 MSTORE PUSH1 0x20 ADD PUSH1 0x1 DUP3 ADD DUP1 SLOAD PUSH2 0x5A6 SWAP1 PUSH2 0xBB5 JUMP JUMPDEST DUP1 PUSH1 0x1F ADD PUSH1 0x20 DUP1 SWAP2 DIV MUL PUSH1 0x20 ADD PUSH1 0x40 MLOAD SWAP1 DUP2 ADD PUSH1 0x40 MSTORE DUP1 SWAP3 SWAP2 SWAP1 DUP2 DUP2 MSTORE PUSH1 0x20 ADD DUP3 DUP1 SLOAD PUSH2 0x5D2 SWAP1 PUSH2 0xBB5 JUMP JUMPDEST DUP1 ISZERO PUSH2 0x61F JUMPI DUP1 PUSH1 0x1F LT PUSH2 0x5F4 JUMPI PUSH2 0x100 DUP1 DUP4 SLOAD DIV MUL DUP4 MSTORE SWAP2 PUSH1 0x20 ADD SWAP2 PUSH2 0x61F JUMP JUMPDEST DUP3 ADD SWAP2 SWAP1 PUSH1 0x0 MSTORE PUSH1 0x20 PUSH1 0x0 KECCAK256 SWAP1 JUMPDEST DUP2 SLOAD DUP2 MSTORE SWAP1 PUSH1 0x1 ADD SWAP1 PUSH1 0x20 ADD DUP1 DUP4 GT PUSH2 0x602 JUMPI DUP3 SWAP1 SUB PUSH1 0x1F AND DUP3 ADD SWAP2 JUMPDEST POP POP POP POP POP DUP2 MSTORE PUSH1 0x20 ADD PUSH1 0x2 DUP3 ADD PUSH1 0x0 SWAP1 SLOAD SWAP1 PUSH2 0x100 EXP SWAP1 DIV PUSH20 0xFFFFFFFFFFFFFFFFFFFFFFFFFFFFFFFFFFFFFFFF AND PUSH20 0xFFFFFFFFFFFFFFFFFFFFFFFFFFFFFFFFFFFFFFFF AND PUSH20 0xFFFFFFFFFFFFFFFFFFFFFFFFFFFFFFFFFFFFFFFF AND DUP2 MSTORE PUSH1 0x20 ADD PUSH1 0x3 DUP3 ADD SLOAD DUP2 MSTORE PUSH1 0x20 ADD PUSH1 0x4 DUP3 ADD PUSH1 0x0 SWAP1 SLOAD SWAP1 PUSH2 0x100 EXP SWAP1 DIV PUSH1 0xFF AND ISZERO ISZERO ISZERO ISZERO DUP2 MSTORE POP POP SWAP1 POP DUP1 PUSH1 0x0 ADD MLOAD DUP2 PUSH1 0x20 ADD MLOAD DUP3 PUSH1 0x40 ADD MLOAD DUP4 PUSH1 0x60 ADD MLOAD SWAP5 POP SWAP5 POP SWAP5 POP SWAP5 POP POP SWAP2 SWAP4 POP SWAP2 SWAP4 JUMP JUMPDEST PUSH1 0x0 PUSH1 0x40 MLOAD SWAP1 POP SWAP1 JUMP JUMPDEST PUSH1 0x0 DUP1 REVERT JUMPDEST PUSH1 0x0 DUP1 REVERT JUMPDEST PUSH1 0x0 DUP1 REVERT JUMPDEST PUSH1 0x0 DUP1 REVERT JUMPDEST PUSH1 0x0 PUSH1 0x1F NOT PUSH1 0x1F DUP4 ADD AND SWAP1 POP SWAP2 SWAP1 POP JUMP JUMPDEST PUSH32 0x4E487B7100000000000000000000000000000000000000000000000000000000 PUSH1 0x0 MSTORE PUSH1 0x41 PUSH1 0x4 MSTORE PUSH1 0x24 PUSH1 0x0 REVERT JUMPDEST PUSH2 0x730 DUP3 PUSH2 0x6E7 JUMP JUMPDEST DUP2 ADD DUP2 DUP2 LT PUSH8 0xFFFFFFFFFFFFFFFF DUP3 GT OR ISZERO PUSH2 0x74F JUMPI PUSH2 0x74E PUSH2 0x6F8 JUMP JUMPDEST JUMPDEST DUP1 PUSH1 0x40 MSTORE POP POP POP JUMP JUMPDEST PUSH1 0x0 PUSH2 0x762 PUSH2 0x6C9 JUMP JUMPDEST SWAP1 POP PUSH2 0x76E DUP3 DUP3 PUSH2 0x727 JUMP JUMPDEST SWAP2 SWAP1 POP JUMP JUMPDEST PUSH1 0x0 PUSH8 0xFFFFFFFFFFFFFFFF DUP3 GT ISZERO PUSH2 0x78E JUMPI PUSH2 0x78D PUSH2 0x6F8 JUMP JUMPDEST JUMPDEST PUSH2 0x797 DUP3 PUSH2 0x6E7 JUMP JUMPDEST SWAP1 POP PUSH1 0x20 DUP2 ADD SWAP1 POP SWAP2 SWAP1 POP JUMP JUMPDEST DUP3 DUP2 DUP4 CALLDATACOPY PUSH1 0x0 DUP4 DUP4 ADD MSTORE POP POP POP JUMP JUMPDEST PUSH1 0x0 PUSH2 0x7C6 PUSH2 0x7C1 DUP5 PUSH2 0x773 JUMP JUMPDEST PUSH2 0x758 JUMP JUMPDEST SWAP1 POP DUP3 DUP2 MSTORE PUSH1 0x20 DUP2 ADD DUP5 DUP5 DUP5 ADD GT ISZERO PUSH2 0x7E2 JUMPI PUSH2 0x7E1 PUSH2 0x6E2 JUMP JUMPDEST JUMPDEST PUSH2 0x7ED DUP5 DUP3 DUP6 PUSH2 0x7A4 JUMP JUMPDEST POP SWAP4 SWAP3 POP POP POP JUMP JUMPDEST PUSH1 0x0 DUP3 PUSH1 0x1F DUP4 ADD SLT PUSH2 0x80A JUMPI PUSH2 0x809 PUSH2 0x6DD JUMP JUMPDEST JUMPDEST DUP2 CALLDATALOAD PUSH2 0x81A DUP5 DUP3 PUSH1 0x20 DUP7 ADD PUSH2 0x7B3 JUMP JUMPDEST SWAP2 POP POP SWAP3 SWAP2 POP POP JUMP JUMPDEST PUSH1 0x0 DUP1 PUSH1 0x0 PUSH1 0x60 DUP5 DUP7 SUB SLT ISZERO PUSH2 0x83C JUMPI PUSH2 0x83B PUSH2 0x6D3 JUMP JUMPDEST JUMPDEST PUSH1 0x0 DUP5 ADD CALLDATALOAD PUSH8 0xFFFFFFFFFFFFFFFF DUP2 GT ISZERO PUSH2 0x85A JUMPI PUSH2 0x859 PUSH2 0x6D8 JUMP JUMPDEST JUMPDEST PUSH2 0x866 DUP7 DUP3 DUP8 ADD PUSH2 0x7F5 JUMP JUMPDEST SWAP4 POP POP PUSH1 0x20 DUP5 ADD CALLDATALOAD PUSH8 0xFFFFFFFFFFFFFFFF DUP2 GT ISZERO PUSH2 0x887 JUMPI PUSH2 0x886 PUSH2 0x6D8 JUMP JUMPDEST JUMPDEST PUSH2 0x893 DUP7 DUP3 DUP8 ADD PUSH2 0x7F5 JUMP JUMPDEST SWAP3 POP POP PUSH1 0x40 DUP5 ADD CALLDATALOAD PUSH8 0xFFFFFFFFFFFFFFFF DUP2 GT ISZERO PUSH2 0x8B4 JUMPI PUSH2 0x8B3 PUSH2 0x6D8 JUMP JUMPDEST JUMPDEST PUSH2 0x8C0 DUP7 DUP3 DUP8 ADD PUSH2 0x7F5 JUMP JUMPDEST SWAP2 POP POP SWAP3 POP SWAP3 POP SWAP3 JUMP JUMPDEST PUSH1 0x0 PUSH20 0xFFFFFFFFFFFFFFFFFFFFFFFFFFFFFFFFFFFFFFFF DUP3 AND SWAP1 POP SWAP2 SWAP1 POP JUMP JUMPDEST PUSH1 0x0 PUSH2 0x8F5 DUP3 PUSH2 0x8CA JUMP JUMPDEST SWAP1 POP SWAP2 SWAP1 POP JUMP JUMPDEST PUSH2 0x905 DUP2 PUSH2 0x8EA JUMP JUMPDEST DUP2 EQ PUSH2 0x910 JUMPI PUSH1 0x0 DUP1 REVERT JUMPDEST POP JUMP JUMPDEST PUSH1 0x0 DUP2 CALLDATALOAD SWAP1 POP PUSH2 0x922 DUP2 PUSH2 0x8FC JUMP JUMPDEST SWAP3 SWAP2 POP POP JUMP JUMPDEST PUSH1 0x0 DUP1 PUSH1 0x40 DUP4 DUP6 SUB SLT ISZERO PUSH2 0x93F JUMPI PUSH2 0x93E PUSH2 0x6D3 JUMP JUMPDEST JUMPDEST PUSH1 0x0 DUP4 ADD CALLDATALOAD PUSH8 0xFFFFFFFFFFFFFFFF DUP2 GT ISZERO PUSH2 0x95D JUMPI PUSH2 0x95C PUSH2 0x6D8 JUMP JUMPDEST JUMPDEST PUSH2 0x969 DUP6 DUP3 DUP7 ADD PUSH2 0x7F5 JUMP JUMPDEST SWAP3 POP POP PUSH1 0x20 PUSH2 0x97A DUP6 DUP3 DUP7 ADD PUSH2 0x913 JUMP JUMPDEST SWAP2 POP POP SWAP3 POP SWAP3 SWAP1 POP JUMP JUMPDEST PUSH1 0x0 PUSH1 0x20 DUP3 DUP5 SUB SLT ISZERO PUSH2 0x99A JUMPI PUSH2 0x999 PUSH2 0x6D3 JUMP JUMPDEST JUMPDEST PUSH1 0x0 DUP3 ADD CALLDATALOAD PUSH8 0xFFFFFFFFFFFFFFFF DUP2 GT ISZERO PUSH2 0x9B8 JUMPI PUSH2 0x9B7 PUSH2 0x6D8 JUMP JUMPDEST JUMPDEST PUSH2 0x9C4 DUP5 DUP3 DUP6 ADD PUSH2 0x7F5 JUMP JUMPDEST SWAP2 POP POP SWAP3 SWAP2 POP POP JUMP JUMPDEST PUSH1 0x0 DUP2 MLOAD SWAP1 POP SWAP2 SWAP1 POP JUMP JUMPDEST PUSH1 0x0 DUP3 DUP3 MSTORE PUSH1 0x20 DUP3 ADD SWAP1 POP SWAP3 SWAP2 POP POP JUMP JUMPDEST PUSH1 0x0 JUMPDEST DUP4 DUP2 LT ISZERO PUSH2 0xA07 JUMPI DUP1 DUP3 ADD MLOAD DUP2 DUP5 ADD MSTORE PUSH1 0x20 DUP2 ADD SWAP1 POP PUSH2 0x9EC JUMP JUMPDEST PUSH1 0x0 DUP5 DUP5 ADD MSTORE POP POP POP POP JUMP JUMPDEST PUSH1 0x0 PUSH2 0xA1E DUP3 PUSH2 0x9CD JUMP JUMPDEST PUSH2 0xA28 DUP2 DUP6 PUSH2 0x9D8 JUMP JUMPDEST SWAP4 POP PUSH2 0xA38 DUP2 DUP6 PUSH1 0x20 DUP7 ADD PUSH2 0x9E9 JUMP JUMPDEST PUSH2 0xA41 DUP2 PUSH2 0x6E7 JUMP JUMPDEST DUP5 ADD SWAP2 POP POP SWAP3 SWAP2 POP POP JUMP JUMPDEST PUSH2 0xA55 DUP2 PUSH2 0x8EA JUMP JUMPDEST DUP3 MSTORE POP POP JUMP JUMPDEST PUSH1 0x0 DUP2 SWAP1 POP SWAP2 SWAP1 POP JUMP JUMPDEST PUSH2 0xA6E DUP2 PUSH2 0xA5B JUMP JUMPDEST DUP3 MSTORE POP POP JUMP JUMPDEST PUSH1 0x0 PUSH1 0x80 DUP3 ADD SWAP1 POP DUP2 DUP2 SUB PUSH1 0x0 DUP4 ADD MSTORE PUSH2 0xA8E DUP2 DUP8 PUSH2 0xA13 JUMP JUMPDEST SWAP1 POP DUP2 DUP2 SUB PUSH1 0x20 DUP4 ADD MSTORE PUSH2 0xAA2 DUP2 DUP7 PUSH2 0xA13 JUMP JUMPDEST SWAP1 POP PUSH2 0xAB1 PUSH1 0x40 DUP4 ADD DUP6 PUSH2 0xA4C JUMP JUMPDEST PUSH2 0xABE PUSH1 0x60 DUP4 ADD DUP5 PUSH2 0xA65 JUMP JUMPDEST SWAP6 SWAP5 POP POP POP POP POP JUMP JUMPDEST PUSH1 0x0 DUP2 SWAP1 POP SWAP3 SWAP2 POP POP JUMP JUMPDEST PUSH1 0x0 PUSH2 0xADD DUP3 PUSH2 0x9CD JUMP JUMPDEST PUSH2 0xAE7 DUP2 DUP6 PUSH2 0xAC7 JUMP JUMPDEST SWAP4 POP PUSH2 0xAF7 DUP2 DUP6 PUSH1 0x20 DUP7 ADD PUSH2 0x9E9 JUMP JUMPDEST DUP1 DUP5 ADD SWAP2 POP POP SWAP3 SWAP2 POP POP JUMP JUMPDEST PUSH1 0x0 PUSH2 0xB0F DUP3 DUP5 PUSH2 0xAD2 JUMP JUMPDEST SWAP2 POP DUP2 SWAP1 POP SWAP3 SWAP2 POP POP JUMP JUMPDEST PUSH32 0x45766964656E636520616C726561647920657869737473000000000000000000 PUSH1 0x0 DUP3 ADD MSTORE POP JUMP JUMPDEST PUSH1 0x0 PUSH2 0xB50 PUSH1 0x17 DUP4 PUSH2 0x9D8 JUMP JUMPDEST SWAP2 POP PUSH2 0xB5B DUP3 PUSH2 0xB1A JUMP JUMPDEST PUSH1 0x20 DUP3 ADD SWAP1 POP SWAP2 SWAP1 POP JUMP JUMPDEST PUSH1 0x0 PUSH1 0x20 DUP3 ADD SWAP1 POP DUP2 DUP2 SUB PUSH1 0x0 DUP4 ADD MSTORE PUSH2 0xB7F DUP2 PUSH2 0xB43 JUMP JUMPDEST SWAP1 POP SWAP2 SWAP1 POP JUMP JUMPDEST PUSH32 0x4E487B7100000000000000000000000000000000000000000000000000000000 PUSH1 0x0 MSTORE PUSH1 0x22 PUSH1 0x4 MSTORE PUSH1 0x24 PUSH1 0x0 REVERT JUMPDEST PUSH1 0x0 PUSH1 0x2 DUP3 DIV SWAP1 POP PUSH1 0x1 DUP3 AND DUP1 PUSH2 0xBCD JUMPI PUSH1 0x7F DUP3 AND SWAP2 POP JUMPDEST PUSH1 0x20 DUP3 LT DUP2 SUB PUSH2 0xBE0 JUMPI PUSH2 0xBDF PUSH2 0xB86 JUMP JUMPDEST JUMPDEST POP SWAP2 SWAP1 POP JUMP JUMPDEST PUSH1 0x0 DUP2 SWAP1 POP DUP2 PUSH1 0x0 MSTORE PUSH1 0x20 PUSH1 0x0 KECCAK256 SWAP1 POP SWAP2 SWAP1 POP JUMP JUMPDEST PUSH1 0x0 PUSH1 0x20 PUSH1 0x1F DUP4 ADD DIV SWAP1 POP SWAP2 SWAP1 POP JUMP JUMPDEST PUSH1 0x0 DUP3 DUP3 SHL SWAP1 POP SWAP3 SWAP2 POP POP JUMP JUMPDEST PUSH1 0x0 PUSH1 0x8 DUP4 MUL PUSH2 0xC48 PUSH32 0xFFFFFFFFFFFFFFFFFFFFFFFFFFFFFFFFFFFFFFFFFFFFFFFFFFFFFFFFFFFFFFFF DUP3 PUSH2 0xC0B JUMP JUMPDEST PUSH2 0xC52 DUP7 DUP4 PUSH2 0xC0B JUMP JUMPDEST SWAP6 POP DUP1 NOT DUP5 AND SWAP4 POP DUP1 DUP7 AND DUP5 OR SWAP3 POP POP POP SWAP4 SWAP3 POP POP POP JUMP JUMPDEST PUSH1 0x0 DUP2 SWAP1 POP SWAP2 SWAP1 POP JUMP JUMPDEST PUSH1 0x0 PUSH2 0xC8F PUSH2 0xC8A PUSH2 0xC85 DUP5 PUSH2 0xA5B JUMP JUMPDEST PUSH2 0xC6A JUMP JUMPDEST PUSH2 0xA5B JUMP JUMPDEST SWAP1 POP SWAP2 SWAP1 POP JUMP JUMPDEST PUSH1 0x0 DUP2 SWAP1 POP SWAP2 SWAP1 POP JUMP JUMPDEST PUSH2 0xCA9 DUP4 PUSH2 0xC74 JUMP JUMPDEST PUSH2 0xCBD PUSH2 0xCB5 DUP3 PUSH2 0xC96 JUMP JUMPDEST DUP5 DUP5 SLOAD PUSH2 0xC18 JUMP JUMPDEST DUP3 SSTORE POP POP POP POP JUMP JUMPDEST PUSH1 0x0 SWAP1 JUMP JUMPDEST PUSH2 0xCD2 PUSH2 0xCC5 JUMP JUMPDEST PUSH2 0xCDD DUP2 DUP5 DUP5 PUSH2 0xCA0 JUMP JUMPDEST POP POP POP JUMP JUMPDEST JUMPDEST DUP2 DUP2 LT ISZERO PUSH2 0xD01 JUMPI PUSH2 0xCF6 PUSH1 0x0 DUP3 PUSH2 0xCCA JUMP JUMPDEST PUSH1 0x1 DUP2 ADD SWAP1 POP PUSH2 0xCE3 JUMP JUMPDEST POP POP JUMP JUMPDEST PUSH1 0x1F DUP3 GT ISZERO PUSH2 0xD46 JUMPI PUSH2 0xD17 DUP2 PUSH2 0xBE6 JUMP JUMPDEST PUSH2 0xD20 DUP5 PUSH2 0xBFB JUMP JUMPDEST DUP2 ADD PUSH1 0x20 DUP6 LT ISZERO PUSH2 0xD2F JUMPI DUP2 SWAP1 POP JUMPDEST PUSH2 0xD43 PUSH2 0xD3B DUP6 PUSH2 0xBFB JUMP JUMPDEST DUP4 ADD DUP3 PUSH2 0xCE2 JUMP JUMPDEST POP POP JUMPDEST POP POP POP JUMP JUMPDEST PUSH1 0x0 DUP3 DUP3 SHR SWAP1 POP SWAP3 SWAP2 POP POP JUMP JUMPDEST PUSH1 0x0 PUSH2 0xD69 PUSH1 0x0 NOT DUP5 PUSH1 0x8 MUL PUSH2 0xD4B JUMP JUMPDEST NOT DUP1 DUP4 AND SWAP2 POP POP SWAP3 SWAP2 POP POP JUMP JUMPDEST PUSH1 0x0 PUSH2 0xD82 DUP4 DUP4 PUSH2 0xD58 JUMP JUMPDEST SWAP2 POP DUP3 PUSH1 0x2 MUL DUP3 OR SWAP1 POP SWAP3 SWAP2 POP POP JUMP JUMPDEST PUSH2 0xD9B DUP3 PUSH2 0x9CD JUMP JUMPDEST PUSH8 0xFFFFFFFFFFFFFFFF DUP2 GT ISZERO PUSH2 0xDB4 JUMPI PUSH2 0xDB3 PUSH2 0x6F8 JUMP JUMPDEST JUMPDEST PUSH2 0xDBE DUP3 SLOAD PUSH2 0xBB5 JUMP JUMPDEST PUSH2 0xDC9 DUP3 DUP3 DUP6 PUSH2 0xD05 JUMP JUMPDEST PUSH1 0x0 PUSH1 0x20 SWAP1 POP PUSH1 0x1F DUP4 GT PUSH1 0x1 DUP2 EQ PUSH2 0xDFC JUMPI PUSH1 0x0 DUP5 ISZERO PUSH2 0xDEA JUMPI DUP3 DUP8 ADD MLOAD SWAP1 POP JUMPDEST PUSH2 0xDF4 DUP6 DUP3 PUSH2 0xD76 JUMP JUMPDEST DUP7 SSTORE POP PUSH2 0xE5C JUMP JUMPDEST PUSH1 0x1F NOT DUP5 AND PUSH2 0xE0A DUP7 PUSH2 0xBE6 JUMP JUMPDEST PUSH1 0x0 JUMPDEST DUP3 DUP2 LT ISZERO PUSH2 0xE32 JUMPI DUP5 DUP10 ADD MLOAD DUP3 SSTORE PUSH1 0x1 DUP3 ADD SWAP2 POP PUSH1 0x20 DUP6 ADD SWAP5 POP PUSH1 0x20 DUP2 ADD SWAP1 POP PUSH2 0xE0D JUMP JUMPDEST DUP7 DUP4 LT ISZERO PUSH2 0xE4F JUMPI DUP5 DUP10 ADD MLOAD PUSH2 0xE4B PUSH1 0x1F DUP10 AND DUP3 PUSH2 0xD58 JUMP JUMPDEST DUP4 SSTORE POP JUMPDEST PUSH1 0x1 PUSH1 0x2 DUP9 MUL ADD DUP9 SSTORE POP POP POP JUMPDEST POP POP POP POP POP POP JUMP JUMPDEST PUSH1 0x0 PUSH1 0xA0 DUP3 ADD SWAP1 POP DUP2 DUP2 SUB PUSH1 0x0 DUP4 ADD MSTORE PUSH2 0xE7E DUP2 DUP9 PUSH2 0xA13 JUMP JUMPDEST SWAP1 POP DUP2 DUP2 SUB PUSH1 0x20 DUP4 ADD MSTORE PUSH2 0xE92 DUP2 DUP8 PUSH2 0xA13 JUMP JUMPDEST SWAP1 POP DUP2 DUP2 SUB PUSH1 0x40 DUP4 ADD MSTORE PUSH2 0xEA6 DUP2 DUP7 PUSH2 0xA13 JUMP JUMPDEST SWAP1 POP PUSH2 0xEB5 PUSH1 0x60 DUP4 ADD DUP6 PUSH2 0xA4C JUMP JUMPDEST PUSH2 0xEC2 PUSH1 0x80 DUP4 ADD DUP5 PUSH2 0xA65 JUMP JUMPDEST SWAP7 SWAP6 POP POP POP POP POP POP JUMP JUMPDEST PUSH32 0x45766964656E6365206E6F7420666F756E640000000000000000000000000000 PUSH1 0x0 DUP3 ADD MSTORE POP JUMP JUMPDEST PUSH1 0x0 PUSH2 0xF02 PUSH1 0x12 DUP4 PUSH2 0x9D8 JUMP JUMPDEST SWAP2 POP PUSH2 0xF0D DUP3 PUSH2 0xECC JUMP JUMPDEST PUSH1 0x20 DUP3 ADD SWAP1 POP SWAP2 SWAP1 POP JUMP JUMPDEST PUSH1 0x0 PUSH1 0x20 DUP3 ADD SWAP1 POP DUP2 DUP2 SUB PUSH1 0x0 DUP4 ADD MSTORE PUSH2 0xF31 DUP2 PUSH2 0xEF5 JUMP JUMPDEST SWAP1 POP SWAP2 SWAP1 POP JUMP JUMPDEST PUSH32 0x4E6F742063757272656E74206F776E6572000000000000000000000000000000 PUSH1 0x0 DUP3 ADD MSTORE POP JUMP JUMPDEST PUSH1 0x0 PUSH2 0xF6E PUSH1 0x11 DUP4 PUSH2 0x9D8 JUMP JUMPDEST SWAP2 POP PUSH2 0xF79 DUP3 PUSH2 0xF38 JUMP JUMPDEST PUSH1 0x20 DUP3 ADD SWAP1 POP SWAP2 SWAP1 POP JUMP JUMPDEST PUSH1 0x0 PUSH1 0x20 DUP3 ADD SWAP1 POP DUP2 DUP2 SUB PUSH1 0x0 DUP4 ADD MSTORE PUSH2 0xF9D DUP2 PUSH2 0xF61 JUMP JUMPDEST SWAP1 POP SWAP2 SWAP1 POP JUMP JUMPDEST PUSH1 0x0 PUSH1 0x80 DUP3 ADD SWAP1 POP DUP2 DUP2 SUB PUSH1 0x0 DUP4 ADD MSTORE PUSH2 0xFBE DUP2 DUP8 PUSH2 0xA13 JUMP JUMPDEST SWAP1 POP PUSH2 0xFCD PUSH1 0x20 DUP4 ADD DUP7 PUSH2 0xA4C JUMP JUMPDEST PUSH2 0xFDA PUSH1 0x40 DUP4 ADD DUP6 PUSH2 0xA4C JUMP JUMPDEST PUSH2 0xFE7 PUSH1 0x60 DUP4 ADD DUP5 PUSH2 0xA65 JUMP JUMPDEST SWAP6 SWAP5 POP POP POP POP POP JUMP INVALID LOG2 PUSH5 0x6970667358 0x22 SLT KECCAK256 0xDB 0xB6 0x2E SWAP3 0xF6 CHAINID 0xF7 DUP12 0xD7 EXTCODECOPY 0xFB 0xCA LOG2 0xE9 0xEE SWAP15 0xC4 0xAB 0x5E 0xA9 REVERT 0xEA ADD 0xE0 0xC1 SWAP7 RETURNDATACOPY MSTORE8 CHAINID SSTORE 0x1F 0xAC PUSH5 0x736F6C6343 STOP ADDMOD SGT STOP CALLER "
		},
		"gasEstimates": {
			"creation": {
				"codeDepositCost": "826800",
				"executionCost": "864",
				"totalCost": "827664"
			},
			"external": {
				"addEvidence(string,string,string)": "infinite",
				"getEvidence(string)": "infinite",
				"transferCustody(string,address)": "infinite"
			}
		},
		"methodIdentifiers": {
			"addEvidence(string,string,string)": "3cf16fda",
			"getEvidence(string)": "b16c6ee7",
			"transferCustody(string,address)": "6f5c148e"
		}
	},
	"abi": [
		{
			"anonymous": false,
			"inputs": [
				{
					"indexed": false,
					"internalType": "string",
					"name": "evidenceID",
					"type": "string"
				},
				{
					"indexed": false,
					"internalType": "address",
					"name": "from",
					"type": "address"
				},
				{
					"indexed": false,
					"internalType": "address",
					"name": "to",
					"type": "address"
				},
				{
					"indexed": false,
					"internalType": "uint256",
					"name": "timestamp",
					"type": "uint256"
				}
			],
			"name": "CustodyTransferred",
			"type": "event"
		},
		{
			"anonymous": false,
			"inputs": [
				{
					"indexed": false,
					"internalType": "string",
					"name": "evidenceID",
					"type": "string"
				},
				{
					"indexed": false,
					"internalType": "string",
					"name": "cid",
					"type": "string"
				},
				{
					"indexed": false,
					"internalType": "string",
					"name": "fileHash",
					"type": "string"
				},
				{
					"indexed": false,
					"internalType": "address",
					"name": "owner",
					"type": "address"
				},
				{
					"indexed": false,
					"internalType": "uint256",
					"name": "timestamp",
					"type": "uint256"
				}
			],
			"name": "EvidenceAdded",
			"type": "event"
		},
		{
			"inputs": [
				{
					"internalType": "string",
					"name": "_evidenceID",
					"type": "string"
				},
				{
					"internalType": "string",
					"name": "_cid",
					"type": "string"
				},
				{
					"internalType": "string",
					"name": "_fileHash",
					"type": "string"
				}
			],
			"name": "addEvidence",
			"outputs": [],
			"stateMutability": "nonpayable",
			"type": "function"
		},
		{
			"inputs": [
				{
					"internalType": "string",
					"name": "_evidenceID",
					"type": "string"
				}
			],
			"name": "getEvidence",
			"outputs": [
				{
					"internalType": "string",
					"name": "cid",
					"type": "string"
				},
				{
					"internalType": "string",
					"name": "fileHash",
					"type": "string"
				},
				{
					"internalType": "address",
					"name": "owner",
					"type": "address"
				},
				{
					"internalType": "uint256",
					"name": "timestamp",
					"type": "uint256"
				}
			],
			"stateMutability": "view",
			"type": "function"
		},
		{
			"inputs": [
				{
					"internalType": "string",
					"name": "_evidenceID",
					"type": "string"
				},
				{
					"internalType": "address",
					"name": "_newOwner",
					"type": "address"
				}
			],
			"name": "transferCustody",
			"outputs": [],
			"stateMutability": "nonpayable",
			"type": "function"
		}
	]
}